{
  "contractName": "Token",
  "abi": [
    {
      "inputs": [],
      "stateMutability": "nonpayable",
      "type": "constructor"
    },
    {
      "anonymous": false,
      "inputs": [
        {
          "indexed": true,
          "internalType": "address",
          "name": "owner",
          "type": "address"
        },
        {
          "indexed": true,
          "internalType": "address",
          "name": "approved",
          "type": "address"
        },
        {
          "indexed": true,
          "internalType": "uint256",
          "name": "tokenId",
          "type": "uint256"
        }
      ],
      "name": "Approval",
      "type": "event"
    },
    {
      "anonymous": false,
      "inputs": [
        {
          "indexed": true,
          "internalType": "address",
          "name": "owner",
          "type": "address"
        },
        {
          "indexed": true,
          "internalType": "address",
          "name": "operator",
          "type": "address"
        },
        {
          "indexed": false,
          "internalType": "bool",
          "name": "approved",
          "type": "bool"
        }
      ],
      "name": "ApprovalForAll",
      "type": "event"
    },
    {
      "anonymous": false,
      "inputs": [
        {
          "indexed": true,
          "internalType": "address",
          "name": "previousOwner",
          "type": "address"
        },
        {
          "indexed": true,
          "internalType": "address",
          "name": "newOwner",
          "type": "address"
        }
      ],
      "name": "OwnershipTransferred",
      "type": "event"
    },
    {
      "anonymous": false,
      "inputs": [
        {
          "indexed": true,
          "internalType": "address",
          "name": "from",
          "type": "address"
        },
        {
          "indexed": true,
          "internalType": "address",
          "name": "to",
          "type": "address"
        },
        {
          "indexed": true,
          "internalType": "uint256",
          "name": "tokenId",
          "type": "uint256"
        }
      ],
      "name": "Transfer",
      "type": "event"
    },
    {
      "inputs": [
        {
          "internalType": "address",
          "name": "to",
          "type": "address"
        },
        {
          "internalType": "uint256",
          "name": "tokenId",
          "type": "uint256"
        }
      ],
      "name": "approve",
      "outputs": [],
      "stateMutability": "nonpayable",
      "type": "function"
    },
    {
      "inputs": [
        {
          "internalType": "address",
          "name": "owner",
          "type": "address"
        }
      ],
      "name": "balanceOf",
      "outputs": [
        {
          "internalType": "uint256",
          "name": "",
          "type": "uint256"
        }
      ],
      "stateMutability": "view",
      "type": "function",
      "constant": true
    },
    {
      "inputs": [
        {
          "internalType": "uint256",
          "name": "tokenId",
          "type": "uint256"
        }
      ],
      "name": "getApproved",
      "outputs": [
        {
          "internalType": "address",
          "name": "",
          "type": "address"
        }
      ],
      "stateMutability": "view",
      "type": "function",
      "constant": true
    },
    {
      "inputs": [
        {
          "internalType": "address",
          "name": "owner",
          "type": "address"
        },
        {
          "internalType": "address",
          "name": "operator",
          "type": "address"
        }
      ],
      "name": "isApprovedForAll",
      "outputs": [
        {
          "internalType": "bool",
          "name": "",
          "type": "bool"
        }
      ],
      "stateMutability": "view",
      "type": "function",
      "constant": true
    },
    {
      "inputs": [],
      "name": "name",
      "outputs": [
        {
          "internalType": "string",
          "name": "",
          "type": "string"
        }
      ],
      "stateMutability": "view",
      "type": "function",
      "constant": true
    },
    {
      "inputs": [],
      "name": "owner",
      "outputs": [
        {
          "internalType": "address",
          "name": "",
          "type": "address"
        }
      ],
      "stateMutability": "view",
      "type": "function",
      "constant": true
    },
    {
      "inputs": [
        {
          "internalType": "uint256",
          "name": "tokenId",
          "type": "uint256"
        }
      ],
      "name": "ownerOf",
      "outputs": [
        {
          "internalType": "address",
          "name": "",
          "type": "address"
        }
      ],
      "stateMutability": "view",
      "type": "function",
      "constant": true
    },
    {
      "inputs": [],
      "name": "renounceOwnership",
      "outputs": [],
      "stateMutability": "nonpayable",
      "type": "function"
    },
    {
      "inputs": [
        {
          "internalType": "address",
          "name": "from",
          "type": "address"
        },
        {
          "internalType": "address",
          "name": "to",
          "type": "address"
        },
        {
          "internalType": "uint256",
          "name": "tokenId",
          "type": "uint256"
        }
      ],
      "name": "safeTransferFrom",
      "outputs": [],
      "stateMutability": "nonpayable",
      "type": "function"
    },
    {
      "inputs": [
        {
          "internalType": "address",
          "name": "from",
          "type": "address"
        },
        {
          "internalType": "address",
          "name": "to",
          "type": "address"
        },
        {
          "internalType": "uint256",
          "name": "tokenId",
          "type": "uint256"
        },
        {
          "internalType": "bytes",
          "name": "_data",
          "type": "bytes"
        }
      ],
      "name": "safeTransferFrom",
      "outputs": [],
      "stateMutability": "nonpayable",
      "type": "function"
    },
    {
      "inputs": [
        {
          "internalType": "address",
          "name": "operator",
          "type": "address"
        },
        {
          "internalType": "bool",
          "name": "approved",
          "type": "bool"
        }
      ],
      "name": "setApprovalForAll",
      "outputs": [],
      "stateMutability": "nonpayable",
      "type": "function"
    },
    {
      "inputs": [
        {
          "internalType": "bytes4",
          "name": "interfaceId",
          "type": "bytes4"
        }
      ],
      "name": "supportsInterface",
      "outputs": [
        {
          "internalType": "bool",
          "name": "",
          "type": "bool"
        }
      ],
      "stateMutability": "view",
      "type": "function",
      "constant": true
    },
    {
      "inputs": [],
      "name": "symbol",
      "outputs": [
        {
          "internalType": "string",
          "name": "",
          "type": "string"
        }
      ],
      "stateMutability": "view",
      "type": "function",
      "constant": true
    },
    {
      "inputs": [
        {
          "internalType": "uint256",
          "name": "tokenId",
          "type": "uint256"
        }
      ],
      "name": "tokenURI",
      "outputs": [
        {
          "internalType": "string",
          "name": "",
          "type": "string"
        }
      ],
      "stateMutability": "view",
      "type": "function",
      "constant": true
    },
    {
      "inputs": [
        {
          "internalType": "address",
          "name": "from",
          "type": "address"
        },
        {
          "internalType": "address",
          "name": "to",
          "type": "address"
        },
        {
          "internalType": "uint256",
          "name": "tokenId",
          "type": "uint256"
        }
      ],
      "name": "transferFrom",
      "outputs": [],
      "stateMutability": "nonpayable",
      "type": "function"
    },
    {
      "inputs": [
        {
          "internalType": "address",
          "name": "newOwner",
          "type": "address"
        }
      ],
      "name": "transferOwnership",
      "outputs": [],
      "stateMutability": "nonpayable",
      "type": "function"
    },
    {
      "inputs": [
        {
          "internalType": "uint256",
          "name": "tokenId",
          "type": "uint256"
        }
      ],
      "name": "getTokenDetails",
      "outputs": [
        {
          "components": [
            {
              "internalType": "uint8",
              "name": "health",
              "type": "uint8"
            },
            {
              "internalType": "uint8",
              "name": "damage",
              "type": "uint8"
            },
            {
              "internalType": "string",
              "name": "plantType",
              "type": "string"
            },
            {
              "internalType": "uint256",
              "name": "date",
              "type": "uint256"
            }
          ],
          "internalType": "struct Token.Pet",
          "name": "",
          "type": "tuple"
        }
      ],
      "stateMutability": "view",
      "type": "function",
      "constant": true
    },
    {
      "inputs": [
        {
          "internalType": "uint256",
          "name": "date",
          "type": "uint256"
        }
      ],
      "name": "mint",
      "outputs": [],
      "stateMutability": "nonpayable",
      "type": "function"
    },
    {
      "inputs": [
        {
          "internalType": "address",
          "name": "user",
          "type": "address"
        }
      ],
      "name": "getAllTokensForUser",
      "outputs": [
        {
          "internalType": "uint256[]",
          "name": "",
          "type": "uint256[]"
        }
      ],
      "stateMutability": "view",
      "type": "function",
      "constant": true
    }
  ],
  "bytecode": "0x608060405260006007553480156200001657600080fd5b506040518060400160405280600481526020017f457a6965000000000000000000000000000000000000000000000000000000008152506040518060400160405280600281526020017f455a00000000000000000000000000000000000000000000000000000000000081525081600090805190602001906200009b929190620001ab565b508060019080519060200190620000b4929190620001ab565b505050620000d7620000cb620000dd60201b60201c565b620000e560201b60201c565b620002c0565b600033905090565b6000600660009054906101000a900473ffffffffffffffffffffffffffffffffffffffff16905081600660006101000a81548173ffffffffffffffffffffffffffffffffffffffff021916908373ffffffffffffffffffffffffffffffffffffffff1602179055508173ffffffffffffffffffffffffffffffffffffffff168173ffffffffffffffffffffffffffffffffffffffff167f8be0079c531659141344cd1fd0a4f28419497f9722a3daafe3b4186f6b6457e060405160405180910390a35050565b828054620001b9906200028a565b90600052602060002090601f016020900481019282620001dd576000855562000229565b82601f10620001f857805160ff191683800117855562000229565b8280016001018555821562000229579182015b82811115620002285782518255916020019190600101906200020b565b5b5090506200023891906200023c565b5090565b5b80821115620002575760008160009055506001016200023d565b5090565b7f4e487b7100000000000000000000000000000000000000000000000000000000600052602260045260246000fd5b60006002820490506001821680620002a357607f821691505b60208210811415620002ba57620002b96200025b565b5b50919050565b61345680620002d06000396000f3fe608060405234801561001057600080fd5b50600436106101215760003560e01c806382de8fe9116100ad578063b88d4fde11610071578063b88d4fde14610306578063c1e0372814610322578063c87b56dd14610352578063e985e9c514610382578063f2fde38b146103b257610121565b806382de8fe9146102625780638da5cb5b1461029257806395d89b41146102b0578063a0712d68146102ce578063a22cb465146102ea57610121565b806323b872dd116100f457806323b872dd146101c057806342842e0e146101dc5780636352211e146101f857806370a0823114610228578063715018a61461025857610121565b806301ffc9a71461012657806306fdde0314610156578063081812fc14610174578063095ea7b3146101a4575b600080fd5b610140600480360381019061013b919061202d565b6103ce565b60405161014d9190612075565b60405180910390f35b61015e6104b0565b60405161016b9190612129565b60405180910390f35b61018e60048036038101906101899190612181565b610542565b60405161019b91906121ef565b60405180910390f35b6101be60048036038101906101b99190612236565b6105c7565b005b6101da60048036038101906101d59190612276565b6106df565b005b6101f660048036038101906101f19190612276565b61073f565b005b610212600480360381019061020d9190612181565b61075f565b60405161021f91906121ef565b60405180910390f35b610242600480360381019061023d91906122c9565b610811565b60405161024f9190612305565b60405180910390f35b6102606108c9565b005b61027c600480360381019061027791906122c9565b610951565b60405161028991906123de565b60405180910390f35b61029a610aa7565b6040516102a791906121ef565b60405180910390f35b6102b8610ad1565b6040516102c59190612129565b60405180910390f35b6102e860048036038101906102e39190612181565b610b63565b005b61030460048036038101906102ff919061242c565b610dd8565b005b610320600480360381019061031b91906125a1565b610f59565b005b61033c60048036038101906103379190612181565b610fbb565b60405161034991906126ed565b60405180910390f35b61036c60048036038101906103679190612181565b6110be565b6040516103799190612129565b60405180910390f35b61039c6004803603810190610397919061270f565b611165565b6040516103a99190612075565b60405180910390f35b6103cc60048036038101906103c791906122c9565b6111f9565b005b60007f80ac58cd000000000000000000000000000000000000000000000000000000007bffffffffffffffffffffffffffffffffffffffffffffffffffffffff1916827bffffffffffffffffffffffffffffffffffffffffffffffffffffffff1916148061049957507f5b5e139f000000000000000000000000000000000000000000000000000000007bffffffffffffffffffffffffffffffffffffffffffffffffffffffff1916827bffffffffffffffffffffffffffffffffffffffffffffffffffffffff1916145b806104a957506104a8826112f1565b5b9050919050565b6060600080546104bf9061277e565b80601f01602080910402602001604051908101604052809291908181526020018280546104eb9061277e565b80156105385780601f1061050d57610100808354040283529160200191610538565b820191906000526020600020905b81548152906001019060200180831161051b57829003601f168201915b5050505050905090565b600061054d8261135b565b61058c576040517f08c379a000000000000000000000000000000000000000000000000000000000815260040161058390612822565b60405180910390fd5b6004600083815260200190815260200160002060009054906101000a900473ffffffffffffffffffffffffffffffffffffffff169050919050565b60006105d28261075f565b90508073ffffffffffffffffffffffffffffffffffffffff168373ffffffffffffffffffffffffffffffffffffffff161415610643576040517f08c379a000000000000000000000000000000000000000000000000000000000815260040161063a906128b4565b60405180910390fd5b8073ffffffffffffffffffffffffffffffffffffffff166106626113c7565b73ffffffffffffffffffffffffffffffffffffffff16148061069157506106908161068b6113c7565b611165565b5b6106d0576040517f08c379a00000000000000000000000000000000000000000000000000000000081526004016106c790612946565b60405180910390fd5b6106da83836113cf565b505050565b6106f06106ea6113c7565b82611488565b61072f576040517f08c379a0000000000000000000000000000000000000000000000000000000008152600401610726906129d8565b60405180910390fd5b61073a838383611566565b505050565b61075a83838360405180602001604052806000815250610f59565b505050565b6000806002600084815260200190815260200160002060009054906101000a900473ffffffffffffffffffffffffffffffffffffffff169050600073ffffffffffffffffffffffffffffffffffffffff168173ffffffffffffffffffffffffffffffffffffffff161415610808576040517f08c379a00000000000000000000000000000000000000000000000000000000081526004016107ff90612a6a565b60405180910390fd5b80915050919050565b60008073ffffffffffffffffffffffffffffffffffffffff168273ffffffffffffffffffffffffffffffffffffffff161415610882576040517f08c379a000000000000000000000000000000000000000000000000000000000815260040161087990612afc565b60405180910390fd5b600360008373ffffffffffffffffffffffffffffffffffffffff1673ffffffffffffffffffffffffffffffffffffffff168152602001908152602001600020549050919050565b6108d16113c7565b73ffffffffffffffffffffffffffffffffffffffff166108ef610aa7565b73ffffffffffffffffffffffffffffffffffffffff1614610945576040517f08c379a000000000000000000000000000000000000000000000000000000000815260040161093c90612b68565b60405180910390fd5b61094f60006117c2565b565b6060600061095e83610811565b905060008114156109bb57600067ffffffffffffffff81111561098457610983612476565b5b6040519080825280602002602001820160405280156109b25781602001602082028036833780820191505090505b50915050610aa2565b60008167ffffffffffffffff8111156109d7576109d6612476565b5b604051908082528060200260200182016040528015610a055781602001602082028036833780820191505090505b509050600060075490506000805b82811015610a99578673ffffffffffffffffffffffffffffffffffffffff16610a3b8261075f565b73ffffffffffffffffffffffffffffffffffffffff161415610a865780848381518110610a6b57610a6a612b88565b5b6020026020010181815250508180610a8290612be6565b9250505b8080610a9190612be6565b915050610a13565b83955050505050505b919050565b6000600660009054906101000a900473ffffffffffffffffffffffffffffffffffffffff16905090565b606060018054610ae09061277e565b80601f0160208091040260200160405190810160405280929190818152602001828054610b0c9061277e565b8015610b595780601f10610b2e57610100808354040283529160200191610b59565b820191906000526020600020905b815481529060010190602001808311610b3c57829003601f168201915b5050505050905090565b610b6b6113c7565b73ffffffffffffffffffffffffffffffffffffffff16610b89610aa7565b73ffffffffffffffffffffffffffffffffffffffff1614610bdf576040517f08c379a0000000000000000000000000000000000000000000000000000000008152600401610bd690612b68565b60405180910390fd5b6000610beb609c611888565b90506000610bfd609c8360ff166118de565b9050606060006003423344604051602001610c1a93929190612c98565b6040516020818303038152906040528051906020012060001c610c3d9190612d04565b90506000811415610c85576040518060400160405280600981526020017f53756e666c6f77657200000000000000000000000000000000000000000000008152509150610d05565b6001811415610ccb576040518060400160405280600a81526020017f50656173686f6f746572000000000000000000000000000000000000000000008152509150610d04565b6040518060400160405280600a81526020017f57617465726d656c6f6e0000000000000000000000000000000000000000000081525091505b5b60405180608001604052808560ff1681526020018460ff1681526020018381526020018681525060086000600754815260200190815260200160002060008201518160000160006101000a81548160ff021916908360ff16021790555060208201518160000160016101000a81548160ff021916908360ff1602179055506040820151816001019080519060200190610d9f929190611ef0565b5060608201518160020155905050610db933600754611926565b60076000815480929190610dcc90612be6565b91905055505050505050565b610de06113c7565b73ffffffffffffffffffffffffffffffffffffffff168273ffffffffffffffffffffffffffffffffffffffff161415610e4e576040517f08c379a0000000000000000000000000000000000000000000000000000000008152600401610e4590612d81565b60405180910390fd5b8060056000610e5b6113c7565b73ffffffffffffffffffffffffffffffffffffffff1673ffffffffffffffffffffffffffffffffffffffff16815260200190815260200160002060008473ffffffffffffffffffffffffffffffffffffffff1673ffffffffffffffffffffffffffffffffffffffff16815260200190815260200160002060006101000a81548160ff0219169083151502179055508173ffffffffffffffffffffffffffffffffffffffff16610f086113c7565b73ffffffffffffffffffffffffffffffffffffffff167f17307eab39ab6107e8899845ad3d59bd9653f200f220920489ca2b5937696c3183604051610f4d9190612075565b60405180910390a35050565b610f6a610f646113c7565b83611488565b610fa9576040517f08c379a0000000000000000000000000000000000000000000000000000000008152600401610fa0906129d8565b60405180910390fd5b610fb584848484611944565b50505050565b610fc3611f76565b600860008381526020019081526020016000206040518060800160405290816000820160009054906101000a900460ff1660ff1660ff1681526020016000820160019054906101000a900460ff1660ff1660ff16815260200160018201805461102b9061277e565b80601f01602080910402602001604051908101604052809291908181526020018280546110579061277e565b80156110a45780601f10611079576101008083540402835291602001916110a4565b820191906000526020600020905b81548152906001019060200180831161108757829003601f168201915b505050505081526020016002820154815250509050919050565b60606110c98261135b565b611108576040517f08c379a00000000000000000000000000000000000000000000000000000000081526004016110ff90612e13565b60405180910390fd5b60006111126119a0565b90506000815111611132576040518060200160405280600081525061115d565b8061113c846119b7565b60405160200161114d929190612e6f565b6040516020818303038152906040525b915050919050565b6000600560008473ffffffffffffffffffffffffffffffffffffffff1673ffffffffffffffffffffffffffffffffffffffff16815260200190815260200160002060008373ffffffffffffffffffffffffffffffffffffffff1673ffffffffffffffffffffffffffffffffffffffff16815260200190815260200160002060009054906101000a900460ff16905092915050565b6112016113c7565b73ffffffffffffffffffffffffffffffffffffffff1661121f610aa7565b73ffffffffffffffffffffffffffffffffffffffff1614611275576040517f08c379a000000000000000000000000000000000000000000000000000000000815260040161126c90612b68565b60405180910390fd5b600073ffffffffffffffffffffffffffffffffffffffff168173ffffffffffffffffffffffffffffffffffffffff1614156112e5576040517f08c379a00000000000000000000000000000000000000000000000000000000081526004016112dc90612f05565b60405180910390fd5b6112ee816117c2565b50565b60007f01ffc9a7000000000000000000000000000000000000000000000000000000007bffffffffffffffffffffffffffffffffffffffffffffffffffffffff1916827bffffffffffffffffffffffffffffffffffffffffffffffffffffffff1916149050919050565b60008073ffffffffffffffffffffffffffffffffffffffff166002600084815260200190815260200160002060009054906101000a900473ffffffffffffffffffffffffffffffffffffffff1673ffffffffffffffffffffffffffffffffffffffff1614159050919050565b600033905090565b816004600083815260200190815260200160002060006101000a81548173ffffffffffffffffffffffffffffffffffffffff021916908373ffffffffffffffffffffffffffffffffffffffff160217905550808273ffffffffffffffffffffffffffffffffffffffff166114428361075f565b73ffffffffffffffffffffffffffffffffffffffff167f8c5be1e5ebec7d5bd14f71427d1e84f3dd0314c0f7b2291e5b200ac8c7c3b92560405160405180910390a45050565b60006114938261135b565b6114d2576040517f08c379a00000000000000000000000000000000000000000000000000000000081526004016114c990612f97565b60405180910390fd5b60006114dd8361075f565b90508073ffffffffffffffffffffffffffffffffffffffff168473ffffffffffffffffffffffffffffffffffffffff16148061154c57508373ffffffffffffffffffffffffffffffffffffffff1661153484610542565b73ffffffffffffffffffffffffffffffffffffffff16145b8061155d575061155c8185611165565b5b91505092915050565b8273ffffffffffffffffffffffffffffffffffffffff166115868261075f565b73ffffffffffffffffffffffffffffffffffffffff16146115dc576040517f08c379a00000000000000000000000000000000000000000000000000000000081526004016115d390613029565b60405180910390fd5b600073ffffffffffffffffffffffffffffffffffffffff168273ffffffffffffffffffffffffffffffffffffffff16141561164c576040517f08c379a0000000000000000000000000000000000000000000000000000000008152600401611643906130bb565b60405180910390fd5b611657838383611b18565b6116626000826113cf565b6001600360008573ffffffffffffffffffffffffffffffffffffffff1673ffffffffffffffffffffffffffffffffffffffff16815260200190815260200160002060008282546116b291906130db565b925050819055506001600360008473ffffffffffffffffffffffffffffffffffffffff1673ffffffffffffffffffffffffffffffffffffffff1681526020019081526020016000206000828254611709919061310f565b92505081905550816002600083815260200190815260200160002060006101000a81548173ffffffffffffffffffffffffffffffffffffffff021916908373ffffffffffffffffffffffffffffffffffffffff160217905550808273ffffffffffffffffffffffffffffffffffffffff168473ffffffffffffffffffffffffffffffffffffffff167fddf252ad1be2c89b69c2b068fc378daa952ba7f163c4a11628f55a4df523b3ef60405160405180910390a4505050565b6000600660009054906101000a900473ffffffffffffffffffffffffffffffffffffffff16905081600660006101000a81548173ffffffffffffffffffffffffffffffffffffffff021916908373ffffffffffffffffffffffffffffffffffffffff1602179055508173ffffffffffffffffffffffffffffffffffffffff168173ffffffffffffffffffffffffffffffffffffffff167f8be0079c531659141344cd1fd0a4f28419497f9722a3daafe3b4186f6b6457e060405160405180910390a35050565b600080824233446040516020016118a193929190612c98565b6040516020818303038152906040528051906020012060001c6118c49190612d04565b90506064816118d3919061310f565b905080915050919050565b600080834284446040516020016118f793929190613165565b6040516020818303038152906040528051906020012060001c61191a9190612d04565b90508091505092915050565b611940828260405180602001604052806000815250611b1d565b5050565b61194f848484611566565b61195b84848484611b78565b61199a576040517f08c379a000000000000000000000000000000000000000000000000000000000815260040161199190613214565b60405180910390fd5b50505050565b606060405180602001604052806000815250905090565b606060008214156119ff576040518060400160405280600181526020017f30000000000000000000000000000000000000000000000000000000000000008152509050611b13565b600082905060005b60008214611a31578080611a1a90612be6565b915050600a82611a2a9190613234565b9150611a07565b60008167ffffffffffffffff811115611a4d57611a4c612476565b5b6040519080825280601f01601f191660200182016040528015611a7f5781602001600182028036833780820191505090505b5090505b60008514611b0c57600182611a9891906130db565b9150600a85611aa79190612d04565b6030611ab3919061310f565b60f81b818381518110611ac957611ac8612b88565b5b60200101907effffffffffffffffffffffffffffffffffffffffffffffffffffffffffffff1916908160001a905350600a85611b059190613234565b9450611a83565b8093505050505b919050565b505050565b611b278383611d0f565b611b346000848484611b78565b611b73576040517f08c379a0000000000000000000000000000000000000000000000000000000008152600401611b6a90613214565b60405180910390fd5b505050565b6000611b998473ffffffffffffffffffffffffffffffffffffffff16611edd565b15611d02578373ffffffffffffffffffffffffffffffffffffffff1663150b7a02611bc26113c7565b8786866040518563ffffffff1660e01b8152600401611be494939291906132ba565b602060405180830381600087803b158015611bfe57600080fd5b505af1925050508015611c2f57506040513d601f19601f82011682018060405250810190611c2c919061331b565b60015b611cb2573d8060008114611c5f576040519150601f19603f3d011682016040523d82523d6000602084013e611c64565b606091505b50600081511415611caa576040517f08c379a0000000000000000000000000000000000000000000000000000000008152600401611ca190613214565b60405180910390fd5b805181602001fd5b63150b7a0260e01b7bffffffffffffffffffffffffffffffffffffffffffffffffffffffff1916817bffffffffffffffffffffffffffffffffffffffffffffffffffffffff191614915050611d07565b600190505b949350505050565b600073ffffffffffffffffffffffffffffffffffffffff168273ffffffffffffffffffffffffffffffffffffffff161415611d7f576040517f08c379a0000000000000000000000000000000000000000000000000000000008152600401611d7690613394565b60405180910390fd5b611d888161135b565b15611dc8576040517f08c379a0000000000000000000000000000000000000000000000000000000008152600401611dbf90613400565b60405180910390fd5b611dd460008383611b18565b6001600360008473ffffffffffffffffffffffffffffffffffffffff1673ffffffffffffffffffffffffffffffffffffffff1681526020019081526020016000206000828254611e24919061310f565b92505081905550816002600083815260200190815260200160002060006101000a81548173ffffffffffffffffffffffffffffffffffffffff021916908373ffffffffffffffffffffffffffffffffffffffff160217905550808273ffffffffffffffffffffffffffffffffffffffff16600073ffffffffffffffffffffffffffffffffffffffff167fddf252ad1be2c89b69c2b068fc378daa952ba7f163c4a11628f55a4df523b3ef60405160405180910390a45050565b600080823b905060008111915050919050565b828054611efc9061277e565b90600052602060002090601f016020900481019282611f1e5760008555611f65565b82601f10611f3757805160ff1916838001178555611f65565b82800160010185558215611f65579182015b82811115611f64578251825591602001919060010190611f49565b5b509050611f729190611fa4565b5090565b6040518060800160405280600060ff168152602001600060ff16815260200160608152602001600081525090565b5b80821115611fbd576000816000905550600101611fa5565b5090565b6000604051905090565b600080fd5b600080fd5b60007fffffffff0000000000000000000000000000000000000000000000000000000082169050919050565b61200a81611fd5565b811461201557600080fd5b50565b60008135905061202781612001565b92915050565b60006020828403121561204357612042611fcb565b5b600061205184828501612018565b91505092915050565b60008115159050919050565b61206f8161205a565b82525050565b600060208201905061208a6000830184612066565b92915050565b600081519050919050565b600082825260208201905092915050565b60005b838110156120ca5780820151818401526020810190506120af565b838111156120d9576000848401525b50505050565b6000601f19601f8301169050919050565b60006120fb82612090565b612105818561209b565b93506121158185602086016120ac565b61211e816120df565b840191505092915050565b6000602082019050818103600083015261214381846120f0565b905092915050565b6000819050919050565b61215e8161214b565b811461216957600080fd5b50565b60008135905061217b81612155565b92915050565b60006020828403121561219757612196611fcb565b5b60006121a58482850161216c565b91505092915050565b600073ffffffffffffffffffffffffffffffffffffffff82169050919050565b60006121d9826121ae565b9050919050565b6121e9816121ce565b82525050565b600060208201905061220460008301846121e0565b92915050565b612213816121ce565b811461221e57600080fd5b50565b6000813590506122308161220a565b92915050565b6000806040838503121561224d5761224c611fcb565b5b600061225b85828601612221565b925050602061226c8582860161216c565b9150509250929050565b60008060006060848603121561228f5761228e611fcb565b5b600061229d86828701612221565b93505060206122ae86828701612221565b92505060406122bf8682870161216c565b9150509250925092565b6000602082840312156122df576122de611fcb565b5b60006122ed84828501612221565b91505092915050565b6122ff8161214b565b82525050565b600060208201905061231a60008301846122f6565b92915050565b600081519050919050565b600082825260208201905092915050565b6000819050602082019050919050565b6123558161214b565b82525050565b6000612367838361234c565b60208301905092915050565b6000602082019050919050565b600061238b82612320565b612395818561232b565b93506123a08361233c565b8060005b838110156123d15781516123b8888261235b565b97506123c383612373565b9250506001810190506123a4565b5085935050505092915050565b600060208201905081810360008301526123f88184612380565b905092915050565b6124098161205a565b811461241457600080fd5b50565b60008135905061242681612400565b92915050565b6000806040838503121561244357612442611fcb565b5b600061245185828601612221565b925050602061246285828601612417565b9150509250929050565b600080fd5b600080fd5b7f4e487b7100000000000000000000000000000000000000000000000000000000600052604160045260246000fd5b6124ae826120df565b810181811067ffffffffffffffff821117156124cd576124cc612476565b5b80604052505050565b60006124e0611fc1565b90506124ec82826124a5565b919050565b600067ffffffffffffffff82111561250c5761250b612476565b5b612515826120df565b9050602081019050919050565b82818337600083830152505050565b600061254461253f846124f1565b6124d6565b9050828152602081018484840111156125605761255f612471565b5b61256b848285612522565b509392505050565b600082601f8301126125885761258761246c565b5b8135612598848260208601612531565b91505092915050565b600080600080608085870312156125bb576125ba611fcb565b5b60006125c987828801612221565b94505060206125da87828801612221565b93505060406125eb8782880161216c565b925050606085013567ffffffffffffffff81111561260c5761260b611fd0565b5b61261887828801612573565b91505092959194509250565b600060ff82169050919050565b61263a81612624565b82525050565b600082825260208201905092915050565b600061265c82612090565b6126668185612640565b93506126768185602086016120ac565b61267f816120df565b840191505092915050565b60006080830160008301516126a26000860182612631565b5060208301516126b56020860182612631565b50604083015184820360408601526126cd8282612651565b91505060608301516126e2606086018261234c565b508091505092915050565b60006020820190508181036000830152612707818461268a565b905092915050565b6000806040838503121561272657612725611fcb565b5b600061273485828601612221565b925050602061274585828601612221565b9150509250929050565b7f4e487b7100000000000000000000000000000000000000000000000000000000600052602260045260246000fd5b6000600282049050600182168061279657607f821691505b602082108114156127aa576127a961274f565b5b50919050565b7f4552433732313a20617070726f76656420717565727920666f72206e6f6e657860008201527f697374656e7420746f6b656e0000000000000000000000000000000000000000602082015250565b600061280c602c8361209b565b9150612817826127b0565b604082019050919050565b6000602082019050818103600083015261283b816127ff565b9050919050565b7f4552433732313a20617070726f76616c20746f2063757272656e74206f776e6560008201527f7200000000000000000000000000000000000000000000000000000000000000602082015250565b600061289e60218361209b565b91506128a982612842565b604082019050919050565b600060208201905081810360008301526128cd81612891565b9050919050565b7f4552433732313a20617070726f76652063616c6c6572206973206e6f74206f7760008201527f6e6572206e6f7220617070726f76656420666f7220616c6c0000000000000000602082015250565b600061293060388361209b565b915061293b826128d4565b604082019050919050565b6000602082019050818103600083015261295f81612923565b9050919050565b7f4552433732313a207472616e736665722063616c6c6572206973206e6f74206f60008201527f776e6572206e6f7220617070726f766564000000000000000000000000000000602082015250565b60006129c260318361209b565b91506129cd82612966565b604082019050919050565b600060208201905081810360008301526129f1816129b5565b9050919050565b7f4552433732313a206f776e657220717565727920666f72206e6f6e657869737460008201527f656e7420746f6b656e0000000000000000000000000000000000000000000000602082015250565b6000612a5460298361209b565b9150612a5f826129f8565b604082019050919050565b60006020820190508181036000830152612a8381612a47565b9050919050565b7f4552433732313a2062616c616e636520717565727920666f7220746865207a6560008201527f726f206164647265737300000000000000000000000000000000000000000000602082015250565b6000612ae6602a8361209b565b9150612af182612a8a565b604082019050919050565b60006020820190508181036000830152612b1581612ad9565b9050919050565b7f4f776e61626c653a2063616c6c6572206973206e6f7420746865206f776e6572600082015250565b6000612b5260208361209b565b9150612b5d82612b1c565b602082019050919050565b60006020820190508181036000830152612b8181612b45565b9050919050565b7f4e487b7100000000000000000000000000000000000000000000000000000000600052603260045260246000fd5b7f4e487b7100000000000000000000000000000000000000000000000000000000600052601160045260246000fd5b6000612bf18261214b565b91507fffffffffffffffffffffffffffffffffffffffffffffffffffffffffffffffff821415612c2457612c23612bb7565b5b600182019050919050565b6000819050919050565b612c4a612c458261214b565b612c2f565b82525050565b60008160601b9050919050565b6000612c6882612c50565b9050919050565b6000612c7a82612c5d565b9050919050565b612c92612c8d826121ce565b612c6f565b82525050565b6000612ca48286612c39565b602082019150612cb48285612c81565b601482019150612cc48284612c39565b602082019150819050949350505050565b7f4e487b7100000000000000000000000000000000000000000000000000000000600052601260045260246000fd5b6000612d0f8261214b565b9150612d1a8361214b565b925082612d2a57612d29612cd5565b5b828206905092915050565b7f4552433732313a20617070726f766520746f2063616c6c657200000000000000600082015250565b6000612d6b60198361209b565b9150612d7682612d35565b602082019050919050565b60006020820190508181036000830152612d9a81612d5e565b9050919050565b7f4552433732314d657461646174613a2055524920717565727920666f72206e6f60008201527f6e6578697374656e7420746f6b656e0000000000000000000000000000000000602082015250565b6000612dfd602f8361209b565b9150612e0882612da1565b604082019050919050565b60006020820190508181036000830152612e2c81612df0565b9050919050565b600081905092915050565b6000612e4982612090565b612e538185612e33565b9350612e638185602086016120ac565b80840191505092915050565b6000612e7b8285612e3e565b9150612e878284612e3e565b91508190509392505050565b7f4f776e61626c653a206e6577206f776e657220697320746865207a65726f206160008201527f6464726573730000000000000000000000000000000000000000000000000000602082015250565b6000612eef60268361209b565b9150612efa82612e93565b604082019050919050565b60006020820190508181036000830152612f1e81612ee2565b9050919050565b7f4552433732313a206f70657261746f7220717565727920666f72206e6f6e657860008201527f697374656e7420746f6b656e0000000000000000000000000000000000000000602082015250565b6000612f81602c8361209b565b9150612f8c82612f25565b604082019050919050565b60006020820190508181036000830152612fb081612f74565b9050919050565b7f4552433732313a207472616e73666572206f6620746f6b656e2074686174206960008201527f73206e6f74206f776e0000000000000000000000000000000000000000000000602082015250565b600061301360298361209b565b915061301e82612fb7565b604082019050919050565b6000602082019050818103600083015261304281613006565b9050919050565b7f4552433732313a207472616e7366657220746f20746865207a65726f2061646460008201527f7265737300000000000000000000000000000000000000000000000000000000602082015250565b60006130a560248361209b565b91506130b082613049565b604082019050919050565b600060208201905081810360008301526130d481613098565b9050919050565b60006130e68261214b565b91506130f18361214b565b92508282101561310457613103612bb7565b5b828203905092915050565b600061311a8261214b565b91506131258361214b565b9250827fffffffffffffffffffffffffffffffffffffffffffffffffffffffffffffffff0382111561315a57613159612bb7565b5b828201905092915050565b60006131718286612c39565b6020820191506131818285612c39565b6020820191506131918284612c39565b602082019150819050949350505050565b7f4552433732313a207472616e7366657220746f206e6f6e20455243373231526560008201527f63656976657220696d706c656d656e7465720000000000000000000000000000602082015250565b60006131fe60328361209b565b9150613209826131a2565b604082019050919050565b6000602082019050818103600083015261322d816131f1565b9050919050565b600061323f8261214b565b915061324a8361214b565b92508261325a57613259612cd5565b5b828204905092915050565b600081519050919050565b600082825260208201905092915050565b600061328c82613265565b6132968185613270565b93506132a68185602086016120ac565b6132af816120df565b840191505092915050565b60006080820190506132cf60008301876121e0565b6132dc60208301866121e0565b6132e960408301856122f6565b81810360608301526132fb8184613281565b905095945050505050565b60008151905061331581612001565b92915050565b60006020828403121561333157613330611fcb565b5b600061333f84828501613306565b91505092915050565b7f4552433732313a206d696e7420746f20746865207a65726f2061646472657373600082015250565b600061337e60208361209b565b915061338982613348565b602082019050919050565b600060208201905081810360008301526133ad81613371565b9050919050565b7f4552433732313a20746f6b656e20616c7265616479206d696e74656400000000600082015250565b60006133ea601c8361209b565b91506133f5826133b4565b602082019050919050565b60006020820190508181036000830152613419816133dd565b905091905056fea2646970667358221220211c045e5dd0cdafacb2948987aa33e2f5d4bac428083be5ebd3a825e6a2050364736f6c63430008090033",
  "immutableReferences": {},
  "source": "pragma solidity ^0.8.9;\r\n\r\nimport '../node_modules/@openzeppelin/contracts/token/ERC721/ERC721.sol';\r\nimport '../node_modules/@openzeppelin/contracts/access/Ownable.sol';\r\n\r\ncontract Token is ERC721, Ownable {\r\n\r\n    struct Pet {\r\n        uint8 health; //0-255\r\n        uint8 damage; //0-255\r\n        string plantType;\r\n        uint256 date;\r\n    }\r\n\r\n    uint256 nextId = 0;\r\n\r\n    mapping(uint256 => Pet) private _tokenDetails;\r\n\r\n    constructor() ERC721(\"Ezie\", \"EZ\") {\r\n        \r\n    }\r\n\r\n    function getTokenDetails(uint256 tokenId) public view returns (Pet memory) {\r\n        return _tokenDetails[tokenId];\r\n    }\r\n\r\n    function mint(uint256 date) public onlyOwner {\r\n        uint8 randHP = randomHP(156);\r\n        uint8 randDMG = randomATK(156, randHP);\r\n        string memory plantType;\r\n        uint randType = uint(keccak256(abi.encodePacked(block.timestamp, msg.sender, block.difficulty))) % 3;\r\n        if(randType == 0) {\r\n            plantType = \"Sunflower\";\r\n        } else if(randType == 1) {\r\n            plantType = \"Peashooter\";\r\n        } else {\r\n            plantType = \"Watermelon\";\r\n        }\r\n\r\n        _tokenDetails[nextId] = Pet(randHP, randDMG, plantType, date);\r\n        _safeMint(msg.sender, nextId);\r\n        nextId++;\r\n    }\r\n\r\n    function getAllTokensForUser(address user) public view returns (uint256[] memory) {\r\n        uint256 tokenCount = balanceOf(user);\r\n        if(tokenCount == 0) {\r\n            return new uint256[](0);\r\n        } \r\n        else {\r\n            uint[] memory result = new uint256[](tokenCount);\r\n            uint256 totalPets = nextId;\r\n            uint256 resultIndex = 0;\r\n            uint256 i;\r\n            for(i = 0; i < totalPets; i++) {\r\n                if(ownerOf(i) == user) {\r\n                    result[resultIndex] = i;\r\n                    resultIndex++;\r\n                }\r\n            }\r\n            return result;\r\n        }\r\n    }\r\n\r\n    function randomHP(uint mod) internal view returns (uint8) {\r\n        uint randomNumber = uint(keccak256(abi.encodePacked(block.timestamp, msg.sender, block.difficulty))) % mod;\r\n        randomNumber = randomNumber + 100;\r\n        return uint8(randomNumber);\r\n    }\r\n\r\n    function randomATK(uint mod, uint rand) internal view returns (uint8) {\r\n        uint randomNumber = uint(keccak256(abi.encodePacked(block.timestamp, rand, block.difficulty))) % mod;\r\n        return uint8(randomNumber);\r\n    }\r\n}",
  "sourcePath": "C:\\Users\\Windows 10\\Desktop\\CSS361 Technoentrepeneur\\ezie-infinity\\contracts\\Tokens.sol",
  "compiler": {
    "name": "solc",
    "version": "0.8.9+commit.e5eed63a.Emscripten.clang"
  },
  "schemaVersion": "3.4.3",
  "updatedAt": "2021-10-16T14:07:02.858Z",
  "networkType": "ethereum",
  "devdoc": {
    "kind": "dev",
    "methods": {
      "approve(address,uint256)": {
        "details": "See {IERC721-approve}."
      },
      "balanceOf(address)": {
        "details": "See {IERC721-balanceOf}."
      },
      "getApproved(uint256)": {
        "details": "See {IERC721-getApproved}."
      },
      "isApprovedForAll(address,address)": {
        "details": "See {IERC721-isApprovedForAll}."
      },
      "name()": {
        "details": "See {IERC721Metadata-name}."
      },
      "owner()": {
        "details": "Returns the address of the current owner."
      },
      "ownerOf(uint256)": {
        "details": "See {IERC721-ownerOf}."
      },
      "renounceOwnership()": {
        "details": "Leaves the contract without owner. It will not be possible to call `onlyOwner` functions anymore. Can only be called by the current owner. NOTE: Renouncing ownership will leave the contract without an owner, thereby removing any functionality that is only available to the owner."
      },
      "safeTransferFrom(address,address,uint256)": {
        "details": "See {IERC721-safeTransferFrom}."
      },
      "safeTransferFrom(address,address,uint256,bytes)": {
        "details": "See {IERC721-safeTransferFrom}."
      },
      "setApprovalForAll(address,bool)": {
        "details": "See {IERC721-setApprovalForAll}."
      },
      "supportsInterface(bytes4)": {
        "details": "See {IERC165-supportsInterface}."
      },
      "symbol()": {
        "details": "See {IERC721Metadata-symbol}."
      },
      "tokenURI(uint256)": {
        "details": "See {IERC721Metadata-tokenURI}."
      },
      "transferFrom(address,address,uint256)": {
        "details": "See {IERC721-transferFrom}."
      },
      "transferOwnership(address)": {
        "details": "Transfers ownership of the contract to a new account (`newOwner`). Can only be called by the current owner."
      }
    },
    "version": 1
  },
  "userdoc": {
    "kind": "user",
    "methods": {},
    "version": 1
  }
}