{
  "contractName": "Token",
  "abi": [
    {
      "inputs": [],
      "stateMutability": "nonpayable",
      "type": "constructor"
    },
    {
      "anonymous": false,
      "inputs": [
        {
          "indexed": true,
          "internalType": "address",
          "name": "owner",
          "type": "address"
        },
        {
          "indexed": true,
          "internalType": "address",
          "name": "approved",
          "type": "address"
        },
        {
          "indexed": true,
          "internalType": "uint256",
          "name": "tokenId",
          "type": "uint256"
        }
      ],
      "name": "Approval",
      "type": "event"
    },
    {
      "anonymous": false,
      "inputs": [
        {
          "indexed": true,
          "internalType": "address",
          "name": "owner",
          "type": "address"
        },
        {
          "indexed": true,
          "internalType": "address",
          "name": "operator",
          "type": "address"
        },
        {
          "indexed": false,
          "internalType": "bool",
          "name": "approved",
          "type": "bool"
        }
      ],
      "name": "ApprovalForAll",
      "type": "event"
    },
    {
      "anonymous": false,
      "inputs": [
        {
          "indexed": true,
          "internalType": "address",
          "name": "previousOwner",
          "type": "address"
        },
        {
          "indexed": true,
          "internalType": "address",
          "name": "newOwner",
          "type": "address"
        }
      ],
      "name": "OwnershipTransferred",
      "type": "event"
    },
    {
      "anonymous": false,
      "inputs": [
        {
          "indexed": true,
          "internalType": "address",
          "name": "from",
          "type": "address"
        },
        {
          "indexed": true,
          "internalType": "address",
          "name": "to",
          "type": "address"
        },
        {
          "indexed": true,
          "internalType": "uint256",
          "name": "tokenId",
          "type": "uint256"
        }
      ],
      "name": "Transfer",
      "type": "event"
    },
    {
      "inputs": [
        {
          "internalType": "address",
          "name": "to",
          "type": "address"
        },
        {
          "internalType": "uint256",
          "name": "tokenId",
          "type": "uint256"
        }
      ],
      "name": "approve",
      "outputs": [],
      "stateMutability": "nonpayable",
      "type": "function"
    },
    {
      "inputs": [
        {
          "internalType": "address",
          "name": "owner",
          "type": "address"
        }
      ],
      "name": "balanceOf",
      "outputs": [
        {
          "internalType": "uint256",
          "name": "",
          "type": "uint256"
        }
      ],
      "stateMutability": "view",
      "type": "function",
      "constant": true
    },
    {
      "inputs": [
        {
          "internalType": "uint256",
          "name": "tokenId",
          "type": "uint256"
        }
      ],
      "name": "getApproved",
      "outputs": [
        {
          "internalType": "address",
          "name": "",
          "type": "address"
        }
      ],
      "stateMutability": "view",
      "type": "function",
      "constant": true
    },
    {
      "inputs": [
        {
          "internalType": "address",
          "name": "owner",
          "type": "address"
        },
        {
          "internalType": "address",
          "name": "operator",
          "type": "address"
        }
      ],
      "name": "isApprovedForAll",
      "outputs": [
        {
          "internalType": "bool",
          "name": "",
          "type": "bool"
        }
      ],
      "stateMutability": "view",
      "type": "function",
      "constant": true
    },
    {
      "inputs": [],
      "name": "name",
      "outputs": [
        {
          "internalType": "string",
          "name": "",
          "type": "string"
        }
      ],
      "stateMutability": "view",
      "type": "function",
      "constant": true
    },
    {
      "inputs": [],
      "name": "owner",
      "outputs": [
        {
          "internalType": "address",
          "name": "",
          "type": "address"
        }
      ],
      "stateMutability": "view",
      "type": "function",
      "constant": true
    },
    {
      "inputs": [
        {
          "internalType": "uint256",
          "name": "tokenId",
          "type": "uint256"
        }
      ],
      "name": "ownerOf",
      "outputs": [
        {
          "internalType": "address",
          "name": "",
          "type": "address"
        }
      ],
      "stateMutability": "view",
      "type": "function",
      "constant": true
    },
    {
      "inputs": [],
      "name": "renounceOwnership",
      "outputs": [],
      "stateMutability": "nonpayable",
      "type": "function"
    },
    {
      "inputs": [
        {
          "internalType": "address",
          "name": "from",
          "type": "address"
        },
        {
          "internalType": "address",
          "name": "to",
          "type": "address"
        },
        {
          "internalType": "uint256",
          "name": "tokenId",
          "type": "uint256"
        }
      ],
      "name": "safeTransferFrom",
      "outputs": [],
      "stateMutability": "nonpayable",
      "type": "function"
    },
    {
      "inputs": [
        {
          "internalType": "address",
          "name": "from",
          "type": "address"
        },
        {
          "internalType": "address",
          "name": "to",
          "type": "address"
        },
        {
          "internalType": "uint256",
          "name": "tokenId",
          "type": "uint256"
        },
        {
          "internalType": "bytes",
          "name": "_data",
          "type": "bytes"
        }
      ],
      "name": "safeTransferFrom",
      "outputs": [],
      "stateMutability": "nonpayable",
      "type": "function"
    },
    {
      "inputs": [
        {
          "internalType": "address",
          "name": "operator",
          "type": "address"
        },
        {
          "internalType": "bool",
          "name": "approved",
          "type": "bool"
        }
      ],
      "name": "setApprovalForAll",
      "outputs": [],
      "stateMutability": "nonpayable",
      "type": "function"
    },
    {
      "inputs": [
        {
          "internalType": "bytes4",
          "name": "interfaceId",
          "type": "bytes4"
        }
      ],
      "name": "supportsInterface",
      "outputs": [
        {
          "internalType": "bool",
          "name": "",
          "type": "bool"
        }
      ],
      "stateMutability": "view",
      "type": "function",
      "constant": true
    },
    {
      "inputs": [],
      "name": "symbol",
      "outputs": [
        {
          "internalType": "string",
          "name": "",
          "type": "string"
        }
      ],
      "stateMutability": "view",
      "type": "function",
      "constant": true
    },
    {
      "inputs": [
        {
          "internalType": "uint256",
          "name": "tokenId",
          "type": "uint256"
        }
      ],
      "name": "tokenURI",
      "outputs": [
        {
          "internalType": "string",
          "name": "",
          "type": "string"
        }
      ],
      "stateMutability": "view",
      "type": "function",
      "constant": true
    },
    {
      "inputs": [
        {
          "internalType": "address",
          "name": "from",
          "type": "address"
        },
        {
          "internalType": "address",
          "name": "to",
          "type": "address"
        },
        {
          "internalType": "uint256",
          "name": "tokenId",
          "type": "uint256"
        }
      ],
      "name": "transferFrom",
      "outputs": [],
      "stateMutability": "nonpayable",
      "type": "function"
    },
    {
      "inputs": [
        {
          "internalType": "address",
          "name": "newOwner",
          "type": "address"
        }
      ],
      "name": "transferOwnership",
      "outputs": [],
      "stateMutability": "nonpayable",
      "type": "function"
    },
    {
      "inputs": [
        {
          "internalType": "uint256",
          "name": "tokenId",
          "type": "uint256"
        }
      ],
      "name": "getTokenDetails",
      "outputs": [
        {
          "components": [
            {
              "internalType": "uint8",
              "name": "health",
              "type": "uint8"
            },
            {
              "internalType": "uint8",
              "name": "damage",
              "type": "uint8"
            },
            {
              "internalType": "string",
              "name": "plantType",
              "type": "string"
            },
            {
              "internalType": "uint256",
              "name": "date",
              "type": "uint256"
            }
          ],
          "internalType": "struct Token.Pet",
          "name": "",
          "type": "tuple"
        }
      ],
      "stateMutability": "view",
      "type": "function",
      "constant": true
    },
    {
      "inputs": [
        {
          "internalType": "uint256",
          "name": "tokenId",
          "type": "uint256"
        }
      ],
      "name": "getPrice",
      "outputs": [
        {
          "internalType": "uint256",
          "name": "",
          "type": "uint256"
        }
      ],
      "stateMutability": "view",
      "type": "function",
      "constant": true
    },
    {
      "inputs": [],
      "name": "getAllSellingTokens",
      "outputs": [
        {
          "internalType": "uint256[]",
          "name": "",
          "type": "uint256[]"
        }
      ],
      "stateMutability": "view",
      "type": "function",
      "constant": true
    },
    {
      "inputs": [
        {
          "internalType": "uint256",
          "name": "date",
          "type": "uint256"
        }
      ],
      "name": "mint",
      "outputs": [],
      "stateMutability": "nonpayable",
      "type": "function"
    },
    {
      "inputs": [
        {
          "internalType": "uint256",
          "name": "_tokenId",
          "type": "uint256"
        },
        {
          "internalType": "uint256",
          "name": "_price",
          "type": "uint256"
        }
      ],
      "name": "allowBuy",
      "outputs": [],
      "stateMutability": "nonpayable",
      "type": "function"
    },
    {
      "inputs": [
        {
          "internalType": "uint256",
          "name": "_tokenId",
          "type": "uint256"
        }
      ],
      "name": "disallowBuy",
      "outputs": [],
      "stateMutability": "nonpayable",
      "type": "function"
    },
    {
      "inputs": [
        {
          "internalType": "uint256",
          "name": "_tokenId",
          "type": "uint256"
        }
      ],
      "name": "buy",
      "outputs": [],
      "stateMutability": "payable",
      "type": "function",
      "payable": true
    },
    {
      "inputs": [
        {
          "internalType": "address",
          "name": "user",
          "type": "address"
        }
      ],
      "name": "getAllTokensForUser",
      "outputs": [
        {
          "internalType": "uint256[]",
          "name": "",
          "type": "uint256[]"
        }
      ],
      "stateMutability": "view",
      "type": "function",
      "constant": true
    }
  ],
  "bytecode": "0x608060405260006007553480156200001657600080fd5b506040518060400160405280600481526020017f457a6965000000000000000000000000000000000000000000000000000000008152506040518060400160405280600281526020017f455a00000000000000000000000000000000000000000000000000000000000081525081600090805190602001906200009b929190620001ab565b508060019080519060200190620000b4929190620001ab565b505050620000d7620000cb620000dd60201b60201c565b620000e560201b60201c565b620002c0565b600033905090565b6000600660009054906101000a900473ffffffffffffffffffffffffffffffffffffffff16905081600660006101000a81548173ffffffffffffffffffffffffffffffffffffffff021916908373ffffffffffffffffffffffffffffffffffffffff1602179055508173ffffffffffffffffffffffffffffffffffffffff168173ffffffffffffffffffffffffffffffffffffffff167f8be0079c531659141344cd1fd0a4f28419497f9722a3daafe3b4186f6b6457e060405160405180910390a35050565b828054620001b9906200028a565b90600052602060002090601f016020900481019282620001dd576000855562000229565b82601f10620001f857805160ff191683800117855562000229565b8280016001018555821562000229579182015b82811115620002285782518255916020019190600101906200020b565b5b5090506200023891906200023c565b5090565b5b80821115620002575760008160009055506001016200023d565b5090565b7f4e487b7100000000000000000000000000000000000000000000000000000000600052602260045260246000fd5b60006002820490506001821680620002a357607f821691505b60208210811415620002ba57620002b96200025b565b5b50919050565b613b7480620002d06000396000f3fe60806040526004361061014b5760003560e01c806395d89b41116100b6578063c87b56dd1161006f578063c87b56dd146104a0578063d4991312146104dd578063d96a094a14610506578063e757223014610522578063e985e9c51461055f578063f2fde38b1461059c5761014b565b806395d89b4114610394578063a0712d68146103bf578063a22cb465146103e8578063b88d4fde14610411578063bbb5e8d31461043a578063c1e03728146104635761014b565b806342842e0e1161010857806342842e0e146102725780636352211e1461029b57806370a08231146102d8578063715018a61461031557806382de8fe91461032c5780638da5cb5b146103695761014b565b806301ffc9a71461015057806306fdde031461018d578063081812fc146101b8578063095ea7b3146101f557806321e52bb71461021e57806323b872dd14610249575b600080fd5b34801561015c57600080fd5b506101776004803603810190610172919061255b565b6105c5565b60405161018491906125a3565b60405180910390f35b34801561019957600080fd5b506101a26106a7565b6040516101af9190612657565b60405180910390f35b3480156101c457600080fd5b506101df60048036038101906101da91906126af565b610739565b6040516101ec919061271d565b60405180910390f35b34801561020157600080fd5b5061021c60048036038101906102179190612764565b6107be565b005b34801561022a57600080fd5b506102336108d6565b6040516102409190612862565b60405180910390f35b34801561025557600080fd5b50610270600480360381019061026b9190612884565b6109eb565b005b34801561027e57600080fd5b5061029960048036038101906102949190612884565b610a4b565b005b3480156102a757600080fd5b506102c260048036038101906102bd91906126af565b610a6b565b6040516102cf919061271d565b60405180910390f35b3480156102e457600080fd5b506102ff60048036038101906102fa91906128d7565b610b1d565b60405161030c9190612913565b60405180910390f35b34801561032157600080fd5b5061032a610bd5565b005b34801561033857600080fd5b50610353600480360381019061034e91906128d7565b610c5d565b6040516103609190612862565b60405180910390f35b34801561037557600080fd5b5061037e610db3565b60405161038b919061271d565b60405180910390f35b3480156103a057600080fd5b506103a9610ddd565b6040516103b69190612657565b60405180910390f35b3480156103cb57600080fd5b506103e660048036038101906103e191906126af565b610e6f565b005b3480156103f457600080fd5b5061040f600480360381019061040a919061295a565b611068565b005b34801561041d57600080fd5b5061043860048036038101906104339190612acf565b6111e9565b005b34801561044657600080fd5b50610461600480360381019061045c9190612b52565b61124b565b005b34801561046f57600080fd5b5061048a600480360381019061048591906126af565b611320565b6040516104979190612c5b565b60405180910390f35b3480156104ac57600080fd5b506104c760048036038101906104c291906126af565b611423565b6040516104d49190612657565b60405180910390f35b3480156104e957600080fd5b5061050460048036038101906104ff91906126af565b6114ca565b005b610520600480360381019061051b91906126af565b61155c565b005b34801561052e57600080fd5b50610549600480360381019061054491906126af565b611676565b6040516105569190612913565b60405180910390f35b34801561056b57600080fd5b5061058660048036038101906105819190612c7d565b611693565b60405161059391906125a3565b60405180910390f35b3480156105a857600080fd5b506105c360048036038101906105be91906128d7565b611727565b005b60007f80ac58cd000000000000000000000000000000000000000000000000000000007bffffffffffffffffffffffffffffffffffffffffffffffffffffffff1916827bffffffffffffffffffffffffffffffffffffffffffffffffffffffff1916148061069057507f5b5e139f000000000000000000000000000000000000000000000000000000007bffffffffffffffffffffffffffffffffffffffffffffffffffffffff1916827bffffffffffffffffffffffffffffffffffffffffffffffffffffffff1916145b806106a0575061069f8261181f565b5b9050919050565b6060600080546106b690612cec565b80601f01602080910402602001604051908101604052809291908181526020018280546106e290612cec565b801561072f5780601f106107045761010080835404028352916020019161072f565b820191906000526020600020905b81548152906001019060200180831161071257829003601f168201915b5050505050905090565b600061074482611889565b610783576040517f08c379a000000000000000000000000000000000000000000000000000000000815260040161077a90612d90565b60405180910390fd5b6004600083815260200190815260200160002060009054906101000a900473ffffffffffffffffffffffffffffffffffffffff169050919050565b60006107c982610a6b565b90508073ffffffffffffffffffffffffffffffffffffffff168373ffffffffffffffffffffffffffffffffffffffff16141561083a576040517f08c379a000000000000000000000000000000000000000000000000000000000815260040161083190612e22565b60405180910390fd5b8073ffffffffffffffffffffffffffffffffffffffff166108596118f5565b73ffffffffffffffffffffffffffffffffffffffff1614806108885750610887816108826118f5565b611693565b5b6108c7576040517f08c379a00000000000000000000000000000000000000000000000000000000081526004016108be90612eb4565b60405180910390fd5b6108d183836118fd565b505050565b606060008060075490506000805b8281101561092957600060096000838152602001908152602001600020541461091657838061091290612f03565b9450505b808061092190612f03565b9150506108e4565b60008467ffffffffffffffff811115610945576109446129a4565b5b6040519080825280602002602001820160405280156109735781602001602082028036833780820191505090505b509050600091505b838210156109e05760006009600084815260200190815260200160002054146109cd57818184815181106109b2576109b1612f4c565b5b60200260200101818152505082806109c990612f03565b9350505b81806109d890612f03565b92505061097b565b809550505050505090565b6109fc6109f66118f5565b826119b6565b610a3b576040517f08c379a0000000000000000000000000000000000000000000000000000000008152600401610a3290612fed565b60405180910390fd5b610a46838383611a94565b505050565b610a66838383604051806020016040528060008152506111e9565b505050565b6000806002600084815260200190815260200160002060009054906101000a900473ffffffffffffffffffffffffffffffffffffffff169050600073ffffffffffffffffffffffffffffffffffffffff168173ffffffffffffffffffffffffffffffffffffffff161415610b14576040517f08c379a0000000000000000000000000000000000000000000000000000000008152600401610b0b9061307f565b60405180910390fd5b80915050919050565b60008073ffffffffffffffffffffffffffffffffffffffff168273ffffffffffffffffffffffffffffffffffffffff161415610b8e576040517f08c379a0000000000000000000000000000000000000000000000000000000008152600401610b8590613111565b60405180910390fd5b600360008373ffffffffffffffffffffffffffffffffffffffff1673ffffffffffffffffffffffffffffffffffffffff168152602001908152602001600020549050919050565b610bdd6118f5565b73ffffffffffffffffffffffffffffffffffffffff16610bfb610db3565b73ffffffffffffffffffffffffffffffffffffffff1614610c51576040517f08c379a0000000000000000000000000000000000000000000000000000000008152600401610c489061317d565b60405180910390fd5b610c5b6000611cf0565b565b60606000610c6a83610b1d565b90506000811415610cc757600067ffffffffffffffff811115610c9057610c8f6129a4565b5b604051908082528060200260200182016040528015610cbe5781602001602082028036833780820191505090505b50915050610dae565b60008167ffffffffffffffff811115610ce357610ce26129a4565b5b604051908082528060200260200182016040528015610d115781602001602082028036833780820191505090505b509050600060075490506000805b82811015610da5578673ffffffffffffffffffffffffffffffffffffffff16610d4782610a6b565b73ffffffffffffffffffffffffffffffffffffffff161415610d925780848381518110610d7757610d76612f4c565b5b6020026020010181815250508180610d8e90612f03565b9250505b8080610d9d90612f03565b915050610d1f565b83955050505050505b919050565b6000600660009054906101000a900473ffffffffffffffffffffffffffffffffffffffff16905090565b606060018054610dec90612cec565b80601f0160208091040260200160405190810160405280929190818152602001828054610e1890612cec565b8015610e655780601f10610e3a57610100808354040283529160200191610e65565b820191906000526020600020905b815481529060010190602001808311610e4857829003601f168201915b5050505050905090565b6000610e7b609c611db6565b90506000610e8d609c8360ff16611e0c565b9050606060006003423344604051602001610eaa93929190613206565b6040516020818303038152906040528051906020012060001c610ecd9190613272565b90506000811415610f15576040518060400160405280600981526020017f53756e666c6f77657200000000000000000000000000000000000000000000008152509150610f95565b6001811415610f5b576040518060400160405280600a81526020017f50656173686f6f746572000000000000000000000000000000000000000000008152509150610f94565b6040518060400160405280600a81526020017f57617465726d656c6f6e0000000000000000000000000000000000000000000081525091505b5b60405180608001604052808560ff1681526020018460ff1681526020018381526020018681525060086000600754815260200190815260200160002060008201518160000160006101000a81548160ff021916908360ff16021790555060208201518160000160016101000a81548160ff021916908360ff160217905550604082015181600101908051906020019061102f92919061241e565b506060820151816002015590505061104933600754611e54565b6007600081548092919061105c90612f03565b91905055505050505050565b6110706118f5565b73ffffffffffffffffffffffffffffffffffffffff168273ffffffffffffffffffffffffffffffffffffffff1614156110de576040517f08c379a00000000000000000000000000000000000000000000000000000000081526004016110d5906132ef565b60405180910390fd5b80600560006110eb6118f5565b73ffffffffffffffffffffffffffffffffffffffff1673ffffffffffffffffffffffffffffffffffffffff16815260200190815260200160002060008473ffffffffffffffffffffffffffffffffffffffff1673ffffffffffffffffffffffffffffffffffffffff16815260200190815260200160002060006101000a81548160ff0219169083151502179055508173ffffffffffffffffffffffffffffffffffffffff166111986118f5565b73ffffffffffffffffffffffffffffffffffffffff167f17307eab39ab6107e8899845ad3d59bd9653f200f220920489ca2b5937696c31836040516111dd91906125a3565b60405180910390a35050565b6111fa6111f46118f5565b836119b6565b611239576040517f08c379a000000000000000000000000000000000000000000000000000000000815260040161123090612fed565b60405180910390fd5b61124584848484611e72565b50505050565b61125482610a6b565b73ffffffffffffffffffffffffffffffffffffffff163373ffffffffffffffffffffffffffffffffffffffff16146112c1576040517f08c379a00000000000000000000000000000000000000000000000000000000081526004016112b89061335b565b60405180910390fd5b60008111611304576040517f08c379a00000000000000000000000000000000000000000000000000000000081526004016112fb906133c7565b60405180910390fd5b8060096000848152602001908152602001600020819055505050565b6113286124a4565b600860008381526020019081526020016000206040518060800160405290816000820160009054906101000a900460ff1660ff1660ff1681526020016000820160019054906101000a900460ff1660ff1660ff16815260200160018201805461139090612cec565b80601f01602080910402602001604051908101604052809291908181526020018280546113bc90612cec565b80156114095780601f106113de57610100808354040283529160200191611409565b820191906000526020600020905b8154815290600101906020018083116113ec57829003601f168201915b505050505081526020016002820154815250509050919050565b606061142e82611889565b61146d576040517f08c379a000000000000000000000000000000000000000000000000000000000815260040161146490613459565b60405180910390fd5b6000611477611ece565b9050600081511161149757604051806020016040528060008152506114c2565b806114a184611ee5565b6040516020016114b29291906134b5565b6040516020818303038152906040525b915050919050565b6114d381610a6b565b73ffffffffffffffffffffffffffffffffffffffff163373ffffffffffffffffffffffffffffffffffffffff1614611540576040517f08c379a00000000000000000000000000000000000000000000000000000000081526004016115379061335b565b60405180910390fd5b6000600960008381526020019081526020016000208190555050565b600060096000838152602001908152602001600020549050600081116115b7576040517f08c379a00000000000000000000000000000000000000000000000000000000081526004016115ae90613525565b60405180910390fd5b8034146115f9576040517f08c379a00000000000000000000000000000000000000000000000000000000081526004016115f090613591565b60405180910390fd5b600061160483610a6b565b9050611611813385611a94565b600060096000858152602001908152602001600020819055508073ffffffffffffffffffffffffffffffffffffffff166108fc349081150290604051600060405180830381858888f19350505050158015611670573d6000803e3d6000fd5b50505050565b600060096000838152602001908152602001600020549050919050565b6000600560008473ffffffffffffffffffffffffffffffffffffffff1673ffffffffffffffffffffffffffffffffffffffff16815260200190815260200160002060008373ffffffffffffffffffffffffffffffffffffffff1673ffffffffffffffffffffffffffffffffffffffff16815260200190815260200160002060009054906101000a900460ff16905092915050565b61172f6118f5565b73ffffffffffffffffffffffffffffffffffffffff1661174d610db3565b73ffffffffffffffffffffffffffffffffffffffff16146117a3576040517f08c379a000000000000000000000000000000000000000000000000000000000815260040161179a9061317d565b60405180910390fd5b600073ffffffffffffffffffffffffffffffffffffffff168173ffffffffffffffffffffffffffffffffffffffff161415611813576040517f08c379a000000000000000000000000000000000000000000000000000000000815260040161180a90613623565b60405180910390fd5b61181c81611cf0565b50565b60007f01ffc9a7000000000000000000000000000000000000000000000000000000007bffffffffffffffffffffffffffffffffffffffffffffffffffffffff1916827bffffffffffffffffffffffffffffffffffffffffffffffffffffffff1916149050919050565b60008073ffffffffffffffffffffffffffffffffffffffff166002600084815260200190815260200160002060009054906101000a900473ffffffffffffffffffffffffffffffffffffffff1673ffffffffffffffffffffffffffffffffffffffff1614159050919050565b600033905090565b816004600083815260200190815260200160002060006101000a81548173ffffffffffffffffffffffffffffffffffffffff021916908373ffffffffffffffffffffffffffffffffffffffff160217905550808273ffffffffffffffffffffffffffffffffffffffff1661197083610a6b565b73ffffffffffffffffffffffffffffffffffffffff167f8c5be1e5ebec7d5bd14f71427d1e84f3dd0314c0f7b2291e5b200ac8c7c3b92560405160405180910390a45050565b60006119c182611889565b611a00576040517f08c379a00000000000000000000000000000000000000000000000000000000081526004016119f7906136b5565b60405180910390fd5b6000611a0b83610a6b565b90508073ffffffffffffffffffffffffffffffffffffffff168473ffffffffffffffffffffffffffffffffffffffff161480611a7a57508373ffffffffffffffffffffffffffffffffffffffff16611a6284610739565b73ffffffffffffffffffffffffffffffffffffffff16145b80611a8b5750611a8a8185611693565b5b91505092915050565b8273ffffffffffffffffffffffffffffffffffffffff16611ab482610a6b565b73ffffffffffffffffffffffffffffffffffffffff1614611b0a576040517f08c379a0000000000000000000000000000000000000000000000000000000008152600401611b0190613747565b60405180910390fd5b600073ffffffffffffffffffffffffffffffffffffffff168273ffffffffffffffffffffffffffffffffffffffff161415611b7a576040517f08c379a0000000000000000000000000000000000000000000000000000000008152600401611b71906137d9565b60405180910390fd5b611b85838383612046565b611b906000826118fd565b6001600360008573ffffffffffffffffffffffffffffffffffffffff1673ffffffffffffffffffffffffffffffffffffffff1681526020019081526020016000206000828254611be091906137f9565b925050819055506001600360008473ffffffffffffffffffffffffffffffffffffffff1673ffffffffffffffffffffffffffffffffffffffff1681526020019081526020016000206000828254611c37919061382d565b92505081905550816002600083815260200190815260200160002060006101000a81548173ffffffffffffffffffffffffffffffffffffffff021916908373ffffffffffffffffffffffffffffffffffffffff160217905550808273ffffffffffffffffffffffffffffffffffffffff168473ffffffffffffffffffffffffffffffffffffffff167fddf252ad1be2c89b69c2b068fc378daa952ba7f163c4a11628f55a4df523b3ef60405160405180910390a4505050565b6000600660009054906101000a900473ffffffffffffffffffffffffffffffffffffffff16905081600660006101000a81548173ffffffffffffffffffffffffffffffffffffffff021916908373ffffffffffffffffffffffffffffffffffffffff1602179055508173ffffffffffffffffffffffffffffffffffffffff168173ffffffffffffffffffffffffffffffffffffffff167f8be0079c531659141344cd1fd0a4f28419497f9722a3daafe3b4186f6b6457e060405160405180910390a35050565b60008082423344604051602001611dcf93929190613206565b6040516020818303038152906040528051906020012060001c611df29190613272565b9050606481611e01919061382d565b905080915050919050565b60008083428444604051602001611e2593929190613883565b6040516020818303038152906040528051906020012060001c611e489190613272565b90508091505092915050565b611e6e82826040518060200160405280600081525061204b565b5050565b611e7d848484611a94565b611e89848484846120a6565b611ec8576040517f08c379a0000000000000000000000000000000000000000000000000000000008152600401611ebf90613932565b60405180910390fd5b50505050565b606060405180602001604052806000815250905090565b60606000821415611f2d576040518060400160405280600181526020017f30000000000000000000000000000000000000000000000000000000000000008152509050612041565b600082905060005b60008214611f5f578080611f4890612f03565b915050600a82611f589190613952565b9150611f35565b60008167ffffffffffffffff811115611f7b57611f7a6129a4565b5b6040519080825280601f01601f191660200182016040528015611fad5781602001600182028036833780820191505090505b5090505b6000851461203a57600182611fc691906137f9565b9150600a85611fd59190613272565b6030611fe1919061382d565b60f81b818381518110611ff757611ff6612f4c565b5b60200101907effffffffffffffffffffffffffffffffffffffffffffffffffffffffffffff1916908160001a905350600a856120339190613952565b9450611fb1565b8093505050505b919050565b505050565b612055838361223d565b61206260008484846120a6565b6120a1576040517f08c379a000000000000000000000000000000000000000000000000000000000815260040161209890613932565b60405180910390fd5b505050565b60006120c78473ffffffffffffffffffffffffffffffffffffffff1661240b565b15612230578373ffffffffffffffffffffffffffffffffffffffff1663150b7a026120f06118f5565b8786866040518563ffffffff1660e01b815260040161211294939291906139d8565b602060405180830381600087803b15801561212c57600080fd5b505af192505050801561215d57506040513d601f19601f8201168201806040525081019061215a9190613a39565b60015b6121e0573d806000811461218d576040519150601f19603f3d011682016040523d82523d6000602084013e612192565b606091505b506000815114156121d8576040517f08c379a00000000000000000000000000000000000000000000000000000000081526004016121cf90613932565b60405180910390fd5b805181602001fd5b63150b7a0260e01b7bffffffffffffffffffffffffffffffffffffffffffffffffffffffff1916817bffffffffffffffffffffffffffffffffffffffffffffffffffffffff191614915050612235565b600190505b949350505050565b600073ffffffffffffffffffffffffffffffffffffffff168273ffffffffffffffffffffffffffffffffffffffff1614156122ad576040517f08c379a00000000000000000000000000000000000000000000000000000000081526004016122a490613ab2565b60405180910390fd5b6122b681611889565b156122f6576040517f08c379a00000000000000000000000000000000000000000000000000000000081526004016122ed90613b1e565b60405180910390fd5b61230260008383612046565b6001600360008473ffffffffffffffffffffffffffffffffffffffff1673ffffffffffffffffffffffffffffffffffffffff1681526020019081526020016000206000828254612352919061382d565b92505081905550816002600083815260200190815260200160002060006101000a81548173ffffffffffffffffffffffffffffffffffffffff021916908373ffffffffffffffffffffffffffffffffffffffff160217905550808273ffffffffffffffffffffffffffffffffffffffff16600073ffffffffffffffffffffffffffffffffffffffff167fddf252ad1be2c89b69c2b068fc378daa952ba7f163c4a11628f55a4df523b3ef60405160405180910390a45050565b600080823b905060008111915050919050565b82805461242a90612cec565b90600052602060002090601f01602090048101928261244c5760008555612493565b82601f1061246557805160ff1916838001178555612493565b82800160010185558215612493579182015b82811115612492578251825591602001919060010190612477565b5b5090506124a091906124d2565b5090565b6040518060800160405280600060ff168152602001600060ff16815260200160608152602001600081525090565b5b808211156124eb5760008160009055506001016124d3565b5090565b6000604051905090565b600080fd5b600080fd5b60007fffffffff0000000000000000000000000000000000000000000000000000000082169050919050565b61253881612503565b811461254357600080fd5b50565b6000813590506125558161252f565b92915050565b600060208284031215612571576125706124f9565b5b600061257f84828501612546565b91505092915050565b60008115159050919050565b61259d81612588565b82525050565b60006020820190506125b86000830184612594565b92915050565b600081519050919050565b600082825260208201905092915050565b60005b838110156125f85780820151818401526020810190506125dd565b83811115612607576000848401525b50505050565b6000601f19601f8301169050919050565b6000612629826125be565b61263381856125c9565b93506126438185602086016125da565b61264c8161260d565b840191505092915050565b60006020820190508181036000830152612671818461261e565b905092915050565b6000819050919050565b61268c81612679565b811461269757600080fd5b50565b6000813590506126a981612683565b92915050565b6000602082840312156126c5576126c46124f9565b5b60006126d38482850161269a565b91505092915050565b600073ffffffffffffffffffffffffffffffffffffffff82169050919050565b6000612707826126dc565b9050919050565b612717816126fc565b82525050565b6000602082019050612732600083018461270e565b92915050565b612741816126fc565b811461274c57600080fd5b50565b60008135905061275e81612738565b92915050565b6000806040838503121561277b5761277a6124f9565b5b60006127898582860161274f565b925050602061279a8582860161269a565b9150509250929050565b600081519050919050565b600082825260208201905092915050565b6000819050602082019050919050565b6127d981612679565b82525050565b60006127eb83836127d0565b60208301905092915050565b6000602082019050919050565b600061280f826127a4565b61281981856127af565b9350612824836127c0565b8060005b8381101561285557815161283c88826127df565b9750612847836127f7565b925050600181019050612828565b5085935050505092915050565b6000602082019050818103600083015261287c8184612804565b905092915050565b60008060006060848603121561289d5761289c6124f9565b5b60006128ab8682870161274f565b93505060206128bc8682870161274f565b92505060406128cd8682870161269a565b9150509250925092565b6000602082840312156128ed576128ec6124f9565b5b60006128fb8482850161274f565b91505092915050565b61290d81612679565b82525050565b60006020820190506129286000830184612904565b92915050565b61293781612588565b811461294257600080fd5b50565b6000813590506129548161292e565b92915050565b60008060408385031215612971576129706124f9565b5b600061297f8582860161274f565b925050602061299085828601612945565b9150509250929050565b600080fd5b600080fd5b7f4e487b7100000000000000000000000000000000000000000000000000000000600052604160045260246000fd5b6129dc8261260d565b810181811067ffffffffffffffff821117156129fb576129fa6129a4565b5b80604052505050565b6000612a0e6124ef565b9050612a1a82826129d3565b919050565b600067ffffffffffffffff821115612a3a57612a396129a4565b5b612a438261260d565b9050602081019050919050565b82818337600083830152505050565b6000612a72612a6d84612a1f565b612a04565b905082815260208101848484011115612a8e57612a8d61299f565b5b612a99848285612a50565b509392505050565b600082601f830112612ab657612ab561299a565b5b8135612ac6848260208601612a5f565b91505092915050565b60008060008060808587031215612ae957612ae86124f9565b5b6000612af78782880161274f565b9450506020612b088782880161274f565b9350506040612b198782880161269a565b925050606085013567ffffffffffffffff811115612b3a57612b396124fe565b5b612b4687828801612aa1565b91505092959194509250565b60008060408385031215612b6957612b686124f9565b5b6000612b778582860161269a565b9250506020612b888582860161269a565b9150509250929050565b600060ff82169050919050565b612ba881612b92565b82525050565b600082825260208201905092915050565b6000612bca826125be565b612bd48185612bae565b9350612be48185602086016125da565b612bed8161260d565b840191505092915050565b6000608083016000830151612c106000860182612b9f565b506020830151612c236020860182612b9f565b5060408301518482036040860152612c3b8282612bbf565b9150506060830151612c5060608601826127d0565b508091505092915050565b60006020820190508181036000830152612c758184612bf8565b905092915050565b60008060408385031215612c9457612c936124f9565b5b6000612ca28582860161274f565b9250506020612cb38582860161274f565b9150509250929050565b7f4e487b7100000000000000000000000000000000000000000000000000000000600052602260045260246000fd5b60006002820490506001821680612d0457607f821691505b60208210811415612d1857612d17612cbd565b5b50919050565b7f4552433732313a20617070726f76656420717565727920666f72206e6f6e657860008201527f697374656e7420746f6b656e0000000000000000000000000000000000000000602082015250565b6000612d7a602c836125c9565b9150612d8582612d1e565b604082019050919050565b60006020820190508181036000830152612da981612d6d565b9050919050565b7f4552433732313a20617070726f76616c20746f2063757272656e74206f776e6560008201527f7200000000000000000000000000000000000000000000000000000000000000602082015250565b6000612e0c6021836125c9565b9150612e1782612db0565b604082019050919050565b60006020820190508181036000830152612e3b81612dff565b9050919050565b7f4552433732313a20617070726f76652063616c6c6572206973206e6f74206f7760008201527f6e6572206e6f7220617070726f76656420666f7220616c6c0000000000000000602082015250565b6000612e9e6038836125c9565b9150612ea982612e42565b604082019050919050565b60006020820190508181036000830152612ecd81612e91565b9050919050565b7f4e487b7100000000000000000000000000000000000000000000000000000000600052601160045260246000fd5b6000612f0e82612679565b91507fffffffffffffffffffffffffffffffffffffffffffffffffffffffffffffffff821415612f4157612f40612ed4565b5b600182019050919050565b7f4e487b7100000000000000000000000000000000000000000000000000000000600052603260045260246000fd5b7f4552433732313a207472616e736665722063616c6c6572206973206e6f74206f60008201527f776e6572206e6f7220617070726f766564000000000000000000000000000000602082015250565b6000612fd76031836125c9565b9150612fe282612f7b565b604082019050919050565b6000602082019050818103600083015261300681612fca565b9050919050565b7f4552433732313a206f776e657220717565727920666f72206e6f6e657869737460008201527f656e7420746f6b656e0000000000000000000000000000000000000000000000602082015250565b60006130696029836125c9565b91506130748261300d565b604082019050919050565b600060208201905081810360008301526130988161305c565b9050919050565b7f4552433732313a2062616c616e636520717565727920666f7220746865207a6560008201527f726f206164647265737300000000000000000000000000000000000000000000602082015250565b60006130fb602a836125c9565b91506131068261309f565b604082019050919050565b6000602082019050818103600083015261312a816130ee565b9050919050565b7f4f776e61626c653a2063616c6c6572206973206e6f7420746865206f776e6572600082015250565b60006131676020836125c9565b915061317282613131565b602082019050919050565b600060208201905081810360008301526131968161315a565b9050919050565b6000819050919050565b6131b86131b382612679565b61319d565b82525050565b60008160601b9050919050565b60006131d6826131be565b9050919050565b60006131e8826131cb565b9050919050565b6132006131fb826126fc565b6131dd565b82525050565b600061321282866131a7565b60208201915061322282856131ef565b60148201915061323282846131a7565b602082019150819050949350505050565b7f4e487b7100000000000000000000000000000000000000000000000000000000600052601260045260246000fd5b600061327d82612679565b915061328883612679565b92508261329857613297613243565b5b828206905092915050565b7f4552433732313a20617070726f766520746f2063616c6c657200000000000000600082015250565b60006132d96019836125c9565b91506132e4826132a3565b602082019050919050565b60006020820190508181036000830152613308816132cc565b9050919050565b7f4e6f74206f776e6572206f66207468697320746f6b656e000000000000000000600082015250565b60006133456017836125c9565b91506133508261330f565b602082019050919050565b6000602082019050818103600083015261337481613338565b9050919050565b7f5072696365207a65726f00000000000000000000000000000000000000000000600082015250565b60006133b1600a836125c9565b91506133bc8261337b565b602082019050919050565b600060208201905081810360008301526133e0816133a4565b9050919050565b7f4552433732314d657461646174613a2055524920717565727920666f72206e6f60008201527f6e6578697374656e7420746f6b656e0000000000000000000000000000000000602082015250565b6000613443602f836125c9565b915061344e826133e7565b604082019050919050565b6000602082019050818103600083015261347281613436565b9050919050565b600081905092915050565b600061348f826125be565b6134998185613479565b93506134a98185602086016125da565b80840191505092915050565b60006134c18285613484565b91506134cd8284613484565b91508190509392505050565b7f5468697320746f6b656e206973206e6f7420666f722073616c65000000000000600082015250565b600061350f601a836125c9565b915061351a826134d9565b602082019050919050565b6000602082019050818103600083015261353e81613502565b9050919050565b7f496e636f72726563742076616c75650000000000000000000000000000000000600082015250565b600061357b600f836125c9565b915061358682613545565b602082019050919050565b600060208201905081810360008301526135aa8161356e565b9050919050565b7f4f776e61626c653a206e6577206f776e657220697320746865207a65726f206160008201527f6464726573730000000000000000000000000000000000000000000000000000602082015250565b600061360d6026836125c9565b9150613618826135b1565b604082019050919050565b6000602082019050818103600083015261363c81613600565b9050919050565b7f4552433732313a206f70657261746f7220717565727920666f72206e6f6e657860008201527f697374656e7420746f6b656e0000000000000000000000000000000000000000602082015250565b600061369f602c836125c9565b91506136aa82613643565b604082019050919050565b600060208201905081810360008301526136ce81613692565b9050919050565b7f4552433732313a207472616e73666572206f6620746f6b656e2074686174206960008201527f73206e6f74206f776e0000000000000000000000000000000000000000000000602082015250565b60006137316029836125c9565b915061373c826136d5565b604082019050919050565b6000602082019050818103600083015261376081613724565b9050919050565b7f4552433732313a207472616e7366657220746f20746865207a65726f2061646460008201527f7265737300000000000000000000000000000000000000000000000000000000602082015250565b60006137c36024836125c9565b91506137ce82613767565b604082019050919050565b600060208201905081810360008301526137f2816137b6565b9050919050565b600061380482612679565b915061380f83612679565b92508282101561382257613821612ed4565b5b828203905092915050565b600061383882612679565b915061384383612679565b9250827fffffffffffffffffffffffffffffffffffffffffffffffffffffffffffffffff0382111561387857613877612ed4565b5b828201905092915050565b600061388f82866131a7565b60208201915061389f82856131a7565b6020820191506138af82846131a7565b602082019150819050949350505050565b7f4552433732313a207472616e7366657220746f206e6f6e20455243373231526560008201527f63656976657220696d706c656d656e7465720000000000000000000000000000602082015250565b600061391c6032836125c9565b9150613927826138c0565b604082019050919050565b6000602082019050818103600083015261394b8161390f565b9050919050565b600061395d82612679565b915061396883612679565b92508261397857613977613243565b5b828204905092915050565b600081519050919050565b600082825260208201905092915050565b60006139aa82613983565b6139b4818561398e565b93506139c48185602086016125da565b6139cd8161260d565b840191505092915050565b60006080820190506139ed600083018761270e565b6139fa602083018661270e565b613a076040830185612904565b8181036060830152613a19818461399f565b905095945050505050565b600081519050613a338161252f565b92915050565b600060208284031215613a4f57613a4e6124f9565b5b6000613a5d84828501613a24565b91505092915050565b7f4552433732313a206d696e7420746f20746865207a65726f2061646472657373600082015250565b6000613a9c6020836125c9565b9150613aa782613a66565b602082019050919050565b60006020820190508181036000830152613acb81613a8f565b9050919050565b7f4552433732313a20746f6b656e20616c7265616479206d696e74656400000000600082015250565b6000613b08601c836125c9565b9150613b1382613ad2565b602082019050919050565b60006020820190508181036000830152613b3781613afb565b905091905056fea2646970667358221220d1c1a6e80b8dd27d2f5679605e9460375e6ac7abe1ac86837ac117688313ff0164736f6c63430008090033",
  "immutableReferences": {},
  "source": "pragma solidity ^0.8.9;\r\n\r\nimport '../node_modules/@openzeppelin/contracts/token/ERC721/ERC721.sol';\r\nimport '../node_modules/@openzeppelin/contracts/access/Ownable.sol';\r\n\r\ncontract Token is ERC721, Ownable {\r\n\r\n    struct Pet {\r\n        uint8 health; //0-255\r\n        uint8 damage; //0-255\r\n        string plantType;\r\n        uint256 date;\r\n    }\r\n\r\n    uint256 nextId = 0;\r\n\r\n    mapping(uint256 => Pet) private _tokenDetails;\r\n    mapping (uint256 => uint256) private tokenIdToPrice;\r\n\r\n    constructor() ERC721(\"Ezie\", \"EZ\") {\r\n    }\r\n\r\n    function getTokenDetails(uint256 tokenId) public view returns (Pet memory) {\r\n        return _tokenDetails[tokenId];\r\n    }\r\n\r\n    function getPrice(uint256 tokenId) public view returns (uint256) {\r\n        return tokenIdToPrice[tokenId];\r\n    }\r\n\r\n    function getAllSellingTokens() public view returns (uint256[] memory) {\r\n        uint256 size;\r\n        uint256 totalPets = nextId;\r\n        uint256 resultIndex = 0;\r\n        uint256 i;\r\n        for(i = 0; i < totalPets; i++) {\r\n            if(tokenIdToPrice[i] != 0) {\r\n                size++;\r\n            }\r\n        }\r\n        uint[] memory result = new uint256[](size);\r\n        for(i = 0; i < totalPets; i++) {\r\n            if(tokenIdToPrice[i] != 0) {\r\n                result[resultIndex] = i;\r\n                resultIndex++;\r\n            }\r\n        }\r\n        return result;\r\n    }\r\n\r\n    function mint(uint256 date) external {\r\n        uint8 randHP = randomHP(156);\r\n        uint8 randDMG = randomATK(156, randHP);\r\n        string memory plantType;\r\n        uint randType = uint(keccak256(abi.encodePacked(block.timestamp, msg.sender, block.difficulty))) % 3;\r\n        if(randType == 0) {\r\n            plantType = \"Sunflower\";\r\n        } else if(randType == 1) {\r\n            plantType = \"Peashooter\";\r\n        } else {\r\n            plantType = \"Watermelon\";\r\n        }\r\n\r\n        _tokenDetails[nextId] = Pet(randHP, randDMG, plantType, date);\r\n        _safeMint(msg.sender, nextId);\r\n        nextId++;\r\n    }\r\n\r\n    function allowBuy(uint256 _tokenId, uint256 _price) external {\r\n        require(msg.sender == ownerOf(_tokenId), 'Not owner of this token');\r\n        require(_price > 0, 'Price zero');\r\n        tokenIdToPrice[_tokenId] = _price;\r\n    }\r\n\r\n    function disallowBuy(uint256 _tokenId) external {\r\n        require(msg.sender == ownerOf(_tokenId), 'Not owner of this token');\r\n        tokenIdToPrice[_tokenId] = 0;\r\n    }\r\n    \r\n    function buy(uint256 _tokenId) external payable {\r\n        uint256 price = tokenIdToPrice[_tokenId];\r\n        require(price > 0, 'This token is not for sale');\r\n        require(msg.value == price, 'Incorrect value');\r\n        \r\n        address seller = ownerOf(_tokenId);\r\n        _transfer(seller, msg.sender, _tokenId);\r\n        tokenIdToPrice[_tokenId] = 0; // not for sale anymore\r\n        payable(seller).transfer(msg.value); // send the ETH to the seller\r\n    }\r\n\r\n    function getAllTokensForUser(address user) public view returns (uint256[] memory) {\r\n        uint256 tokenCount = balanceOf(user);\r\n        if(tokenCount == 0) {\r\n            return new uint256[](0);\r\n        } \r\n        else {\r\n            uint[] memory result = new uint256[](tokenCount);\r\n            uint256 totalPets = nextId;\r\n            uint256 resultIndex = 0;\r\n            uint256 i;\r\n            for(i = 0; i < totalPets; i++) {\r\n                if(ownerOf(i) == user) {\r\n                    result[resultIndex] = i;\r\n                    resultIndex++;\r\n                }\r\n            }\r\n            return result;\r\n        }\r\n    }\r\n\r\n    function randomHP(uint mod) internal view returns (uint8) {\r\n        uint randomNumber = uint(keccak256(abi.encodePacked(block.timestamp, msg.sender, block.difficulty))) % mod;\r\n        randomNumber = randomNumber + 100;\r\n        return uint8(randomNumber);\r\n    }\r\n\r\n    function randomATK(uint mod, uint rand) internal view returns (uint8) {\r\n        uint randomNumber = uint(keccak256(abi.encodePacked(block.timestamp, rand, block.difficulty))) % mod;\r\n        return uint8(randomNumber);\r\n    }\r\n}",
  "sourcePath": "C:\\Users\\Windows 10\\Desktop\\CSS361 Technoentrepeneur\\ezie-infinity\\contracts\\Tokens.sol",
  "compiler": {
    "name": "solc",
    "version": "0.8.9+commit.e5eed63a.Emscripten.clang"
  },
  "schemaVersion": "3.4.3",
  "updatedAt": "2021-10-23T14:47:37.153Z",
  "networkType": "ethereum",
  "devdoc": {
    "kind": "dev",
    "methods": {
      "approve(address,uint256)": {
        "details": "See {IERC721-approve}."
      },
      "balanceOf(address)": {
        "details": "See {IERC721-balanceOf}."
      },
      "getApproved(uint256)": {
        "details": "See {IERC721-getApproved}."
      },
      "isApprovedForAll(address,address)": {
        "details": "See {IERC721-isApprovedForAll}."
      },
      "name()": {
        "details": "See {IERC721Metadata-name}."
      },
      "owner()": {
        "details": "Returns the address of the current owner."
      },
      "ownerOf(uint256)": {
        "details": "See {IERC721-ownerOf}."
      },
      "renounceOwnership()": {
        "details": "Leaves the contract without owner. It will not be possible to call `onlyOwner` functions anymore. Can only be called by the current owner. NOTE: Renouncing ownership will leave the contract without an owner, thereby removing any functionality that is only available to the owner."
      },
      "safeTransferFrom(address,address,uint256)": {
        "details": "See {IERC721-safeTransferFrom}."
      },
      "safeTransferFrom(address,address,uint256,bytes)": {
        "details": "See {IERC721-safeTransferFrom}."
      },
      "setApprovalForAll(address,bool)": {
        "details": "See {IERC721-setApprovalForAll}."
      },
      "supportsInterface(bytes4)": {
        "details": "See {IERC165-supportsInterface}."
      },
      "symbol()": {
        "details": "See {IERC721Metadata-symbol}."
      },
      "tokenURI(uint256)": {
        "details": "See {IERC721Metadata-tokenURI}."
      },
      "transferFrom(address,address,uint256)": {
        "details": "See {IERC721-transferFrom}."
      },
      "transferOwnership(address)": {
        "details": "Transfers ownership of the contract to a new account (`newOwner`). Can only be called by the current owner."
      }
    },
    "version": 1
  },
  "userdoc": {
    "kind": "user",
    "methods": {},
    "version": 1
  }
}